{
  "contractName": "OrderBookV3",
  "abi": [
    {
      "anonymous": false,
      "inputs": [
        {
          "indexed": true,
          "internalType": "uint256",
          "name": "orderId",
          "type": "uint256"
        },
        {
          "indexed": true,
          "internalType": "address",
          "name": "maker",
          "type": "address"
        },
        {
          "indexed": false,
          "internalType": "address",
          "name": "makeAsset",
          "type": "address"
        },
        {
          "indexed": false,
          "internalType": "address",
          "name": "takeAsset",
          "type": "address"
        },
        {
          "indexed": false,
          "internalType": "uint256",
          "name": "makeAmount",
          "type": "uint256"
        },
        {
          "indexed": false,
          "internalType": "uint256",
          "name": "takeAmount",
          "type": "uint256"
        },
        {
          "indexed": false,
          "internalType": "uint256",
          "name": "startBlock",
          "type": "uint256"
        },
        {
          "indexed": false,
          "internalType": "uint256",
          "name": "endBlock",
          "type": "uint256"
        }
      ],
      "name": "CancelOrderEvent",
      "type": "event"
    },
    {
      "anonymous": false,
      "inputs": [
        {
          "indexed": true,
          "internalType": "uint256",
          "name": "orderId",
          "type": "uint256"
        },
        {
          "indexed": true,
          "internalType": "address",
          "name": "maker",
          "type": "address"
        },
        {
          "indexed": true,
          "internalType": "address",
          "name": "taker",
          "type": "address"
        },
        {
          "indexed": false,
          "internalType": "address",
          "name": "makeAsset",
          "type": "address"
        },
        {
          "indexed": false,
          "internalType": "address",
          "name": "takeAsset",
          "type": "address"
        },
        {
          "indexed": false,
          "internalType": "uint256",
          "name": "startBlock",
          "type": "uint256"
        },
        {
          "indexed": false,
          "internalType": "uint256",
          "name": "endBlock",
          "type": "uint256"
        },
        {
          "indexed": false,
          "internalType": "uint256",
          "name": "quantity",
          "type": "uint256"
        },
        {
          "indexed": false,
          "internalType": "uint256",
          "name": "fulfilledQuantity",
          "type": "uint256"
        }
      ],
      "name": "FillingOrderEvent",
      "type": "event"
    },
    {
      "anonymous": false,
      "inputs": [
        {
          "indexed": false,
          "internalType": "uint8",
          "name": "version",
          "type": "uint8"
        }
      ],
      "name": "Initialized",
      "type": "event"
    },
    {
      "anonymous": false,
      "inputs": [
        {
          "indexed": true,
          "internalType": "uint256",
          "name": "orderId",
          "type": "uint256"
        },
        {
          "indexed": true,
          "internalType": "address",
          "name": "maker",
          "type": "address"
        },
        {
          "indexed": false,
          "internalType": "uint256",
          "name": "makeAmount",
          "type": "uint256"
        },
        {
          "indexed": false,
          "internalType": "uint256",
          "name": "takeAmount",
          "type": "uint256"
        },
        {
          "indexed": false,
          "internalType": "uint256",
          "name": "startBlock",
          "type": "uint256"
        },
        {
          "indexed": false,
          "internalType": "uint256",
          "name": "endBlock",
          "type": "uint256"
        },
        {
          "indexed": false,
          "internalType": "address",
          "name": "makeAsset",
          "type": "address"
        },
        {
          "indexed": false,
          "internalType": "address",
          "name": "takeAsset",
          "type": "address"
        }
      ],
      "name": "OpenOrderEvent",
      "type": "event"
    },
    {
      "inputs": [],
      "name": "_currentOrderId",
      "outputs": [
        {
          "internalType": "uint256",
          "name": "_value",
          "type": "uint256"
        }
      ],
      "stateMutability": "view",
      "type": "function"
    },
    {
      "inputs": [
        {
          "internalType": "uint256",
          "name": "",
          "type": "uint256"
        },
        {
          "internalType": "uint256",
          "name": "",
          "type": "uint256"
        }
      ],
      "name": "_orderBids",
      "outputs": [
        {
          "internalType": "address",
          "name": "taker",
          "type": "address"
        },
        {
          "internalType": "uint256",
          "name": "makeAmountBought",
          "type": "uint256"
        }
      ],
      "stateMutability": "view",
      "type": "function"
    },
    {
      "inputs": [
        {
          "internalType": "uint256",
          "name": "",
          "type": "uint256"
        }
      ],
      "name": "_orderBooks",
      "outputs": [
        {
          "internalType": "address",
          "name": "maker",
          "type": "address"
        },
        {
          "internalType": "address",
          "name": "makeAsset",
          "type": "address"
        },
        {
          "internalType": "uint256",
          "name": "makeAmount",
          "type": "uint256"
        },
        {
          "internalType": "address",
          "name": "taker",
          "type": "address"
        },
        {
          "internalType": "address",
          "name": "takeAsset",
          "type": "address"
        },
        {
          "internalType": "uint256",
          "name": "takeAmount",
          "type": "uint256"
        },
        {
          "internalType": "uint256",
          "name": "salt",
          "type": "uint256"
        },
        {
          "internalType": "uint256",
          "name": "startBlock",
          "type": "uint256"
        },
        {
          "internalType": "uint256",
          "name": "endBlock",
          "type": "uint256"
        },
        {
          "internalType": "uint256",
          "name": "id",
          "type": "uint256"
        }
      ],
      "stateMutability": "view",
      "type": "function"
    },
    {
      "inputs": [
        {
          "internalType": "uint256",
          "name": "",
          "type": "uint256"
        }
      ],
      "name": "_orderStatus",
      "outputs": [
        {
          "internalType": "enum IOrderBook.Status",
          "name": "",
          "type": "uint8"
        }
      ],
      "stateMutability": "view",
      "type": "function"
    },
    {
      "inputs": [],
      "name": "initialize",
      "outputs": [],
      "stateMutability": "nonpayable",
      "type": "function"
    },
    {
      "inputs": [],
      "name": "getCurrentId",
      "outputs": [
        {
          "internalType": "uint256",
          "name": "",
          "type": "uint256"
        }
      ],
      "stateMutability": "view",
      "type": "function"
    },
    {
      "inputs": [
        {
          "internalType": "uint256",
          "name": "id",
          "type": "uint256"
        }
      ],
      "name": "checkOrderExists",
      "outputs": [
        {
          "internalType": "bool",
          "name": "",
          "type": "bool"
        }
      ],
      "stateMutability": "view",
      "type": "function"
    },
    {
      "inputs": [
        {
          "internalType": "uint256",
          "name": "id",
          "type": "uint256"
        }
      ],
      "name": "canFill",
      "outputs": [
        {
          "internalType": "bool",
          "name": "",
          "type": "bool"
        }
      ],
      "stateMutability": "view",
      "type": "function"
    },
    {
      "inputs": [],
      "name": "getOrders",
      "outputs": [
        {
          "components": [
            {
              "internalType": "address",
              "name": "maker",
              "type": "address"
            },
            {
              "internalType": "address",
              "name": "makeAsset",
              "type": "address"
            },
            {
              "internalType": "uint256",
              "name": "makeAmount",
              "type": "uint256"
            },
            {
              "internalType": "address",
              "name": "taker",
              "type": "address"
            },
            {
              "internalType": "address",
              "name": "takeAsset",
              "type": "address"
            },
            {
              "internalType": "uint256",
              "name": "takeAmount",
              "type": "uint256"
            },
            {
              "internalType": "uint256",
              "name": "salt",
              "type": "uint256"
            },
            {
              "internalType": "uint256",
              "name": "startBlock",
              "type": "uint256"
            },
            {
              "internalType": "uint256",
              "name": "endBlock",
              "type": "uint256"
            },
            {
              "internalType": "uint256",
              "name": "id",
              "type": "uint256"
            }
          ],
          "internalType": "struct IOrderBook.Order[]",
          "name": "",
          "type": "tuple[]"
        },
        {
          "internalType": "enum IOrderBook.Status[]",
          "name": "",
          "type": "uint8[]"
        },
        {
          "components": [
            {
              "internalType": "address",
              "name": "taker",
              "type": "address"
            },
            {
              "internalType": "uint256",
              "name": "makeAmountBought",
              "type": "uint256"
            }
          ],
          "internalType": "struct IOrderBook.Bid[][]",
          "name": "",
          "type": "tuple[][]"
        }
      ],
      "stateMutability": "view",
      "type": "function"
    },
    {
      "inputs": [
        {
          "internalType": "uint256",
          "name": "id",
          "type": "uint256"
        }
      ],
      "name": "getOrderById",
      "outputs": [
        {
          "components": [
            {
              "internalType": "address",
              "name": "maker",
              "type": "address"
            },
            {
              "internalType": "address",
              "name": "makeAsset",
              "type": "address"
            },
            {
              "internalType": "uint256",
              "name": "makeAmount",
              "type": "uint256"
            },
            {
              "internalType": "address",
              "name": "taker",
              "type": "address"
            },
            {
              "internalType": "address",
              "name": "takeAsset",
              "type": "address"
            },
            {
              "internalType": "uint256",
              "name": "takeAmount",
              "type": "uint256"
            },
            {
              "internalType": "uint256",
              "name": "salt",
              "type": "uint256"
            },
            {
              "internalType": "uint256",
              "name": "startBlock",
              "type": "uint256"
            },
            {
              "internalType": "uint256",
              "name": "endBlock",
              "type": "uint256"
            },
            {
              "internalType": "uint256",
              "name": "id",
              "type": "uint256"
            }
          ],
          "internalType": "struct IOrderBook.Order",
          "name": "",
          "type": "tuple"
        },
        {
          "internalType": "enum IOrderBook.Status",
          "name": "",
          "type": "uint8"
        },
        {
          "components": [
            {
              "internalType": "address",
              "name": "taker",
              "type": "address"
            },
            {
              "internalType": "uint256",
              "name": "makeAmountBought",
              "type": "uint256"
            }
          ],
          "internalType": "struct IOrderBook.Bid[]",
          "name": "",
          "type": "tuple[]"
        }
      ],
      "stateMutability": "view",
      "type": "function"
    },
    {
      "inputs": [
        {
          "internalType": "address",
          "name": "asset",
          "type": "address"
        }
      ],
      "name": "getOrdersByMakeAsset",
      "outputs": [
        {
          "components": [
            {
              "internalType": "address",
              "name": "maker",
              "type": "address"
            },
            {
              "internalType": "address",
              "name": "makeAsset",
              "type": "address"
            },
            {
              "internalType": "uint256",
              "name": "makeAmount",
              "type": "uint256"
            },
            {
              "internalType": "address",
              "name": "taker",
              "type": "address"
            },
            {
              "internalType": "address",
              "name": "takeAsset",
              "type": "address"
            },
            {
              "internalType": "uint256",
              "name": "takeAmount",
              "type": "uint256"
            },
            {
              "internalType": "uint256",
              "name": "salt",
              "type": "uint256"
            },
            {
              "internalType": "uint256",
              "name": "startBlock",
              "type": "uint256"
            },
            {
              "internalType": "uint256",
              "name": "endBlock",
              "type": "uint256"
            },
            {
              "internalType": "uint256",
              "name": "id",
              "type": "uint256"
            }
          ],
          "internalType": "struct IOrderBook.Order[]",
          "name": "",
          "type": "tuple[]"
        },
        {
          "internalType": "enum IOrderBook.Status[]",
          "name": "",
          "type": "uint8[]"
        },
        {
          "components": [
            {
              "internalType": "address",
              "name": "taker",
              "type": "address"
            },
            {
              "internalType": "uint256",
              "name": "makeAmountBought",
              "type": "uint256"
            }
          ],
          "internalType": "struct IOrderBook.Bid[][]",
          "name": "",
          "type": "tuple[][]"
        }
      ],
      "stateMutability": "view",
      "type": "function"
    },
    {
      "inputs": [
        {
          "internalType": "address",
          "name": "asset",
          "type": "address"
        }
      ],
      "name": "getOrdersByTakeAsset",
      "outputs": [
        {
          "components": [
            {
              "internalType": "address",
              "name": "maker",
              "type": "address"
            },
            {
              "internalType": "address",
              "name": "makeAsset",
              "type": "address"
            },
            {
              "internalType": "uint256",
              "name": "makeAmount",
              "type": "uint256"
            },
            {
              "internalType": "address",
              "name": "taker",
              "type": "address"
            },
            {
              "internalType": "address",
              "name": "takeAsset",
              "type": "address"
            },
            {
              "internalType": "uint256",
              "name": "takeAmount",
              "type": "uint256"
            },
            {
              "internalType": "uint256",
              "name": "salt",
              "type": "uint256"
            },
            {
              "internalType": "uint256",
              "name": "startBlock",
              "type": "uint256"
            },
            {
              "internalType": "uint256",
              "name": "endBlock",
              "type": "uint256"
            },
            {
              "internalType": "uint256",
              "name": "id",
              "type": "uint256"
            }
          ],
          "internalType": "struct IOrderBook.Order[]",
          "name": "",
          "type": "tuple[]"
        },
        {
          "internalType": "enum IOrderBook.Status[]",
          "name": "",
          "type": "uint8[]"
        },
        {
          "components": [
            {
              "internalType": "address",
              "name": "taker",
              "type": "address"
            },
            {
              "internalType": "uint256",
              "name": "makeAmountBought",
              "type": "uint256"
            }
          ],
          "internalType": "struct IOrderBook.Bid[][]",
          "name": "",
          "type": "tuple[][]"
        }
      ],
      "stateMutability": "view",
      "type": "function"
    },
    {
      "inputs": [
        {
          "internalType": "address",
          "name": "makerAddress",
          "type": "address"
        }
      ],
      "name": "getOrdersByAddress",
      "outputs": [
        {
          "components": [
            {
              "internalType": "address",
              "name": "maker",
              "type": "address"
            },
            {
              "internalType": "address",
              "name": "makeAsset",
              "type": "address"
            },
            {
              "internalType": "uint256",
              "name": "makeAmount",
              "type": "uint256"
            },
            {
              "internalType": "address",
              "name": "taker",
              "type": "address"
            },
            {
              "internalType": "address",
              "name": "takeAsset",
              "type": "address"
            },
            {
              "internalType": "uint256",
              "name": "takeAmount",
              "type": "uint256"
            },
            {
              "internalType": "uint256",
              "name": "salt",
              "type": "uint256"
            },
            {
              "internalType": "uint256",
              "name": "startBlock",
              "type": "uint256"
            },
            {
              "internalType": "uint256",
              "name": "endBlock",
              "type": "uint256"
            },
            {
              "internalType": "uint256",
              "name": "id",
              "type": "uint256"
            }
          ],
          "internalType": "struct IOrderBook.Order[]",
          "name": "",
          "type": "tuple[]"
        },
        {
          "internalType": "enum IOrderBook.Status[]",
          "name": "",
          "type": "uint8[]"
        },
        {
          "components": [
            {
              "internalType": "address",
              "name": "taker",
              "type": "address"
            },
            {
              "internalType": "uint256",
              "name": "makeAmountBought",
              "type": "uint256"
            }
          ],
          "internalType": "struct IOrderBook.Bid[][]",
          "name": "",
          "type": "tuple[][]"
        }
      ],
      "stateMutability": "view",
      "type": "function"
    },
    {
      "inputs": [
        {
          "internalType": "address",
          "name": "bidderAddress",
          "type": "address"
        }
      ],
      "name": "getOrdersWithBidsByAddress",
      "outputs": [
        {
          "components": [
            {
              "internalType": "address",
              "name": "maker",
              "type": "address"
            },
            {
              "internalType": "address",
              "name": "makeAsset",
              "type": "address"
            },
            {
              "internalType": "uint256",
              "name": "makeAmount",
              "type": "uint256"
            },
            {
              "internalType": "address",
              "name": "taker",
              "type": "address"
            },
            {
              "internalType": "address",
              "name": "takeAsset",
              "type": "address"
            },
            {
              "internalType": "uint256",
              "name": "takeAmount",
              "type": "uint256"
            },
            {
              "internalType": "uint256",
              "name": "salt",
              "type": "uint256"
            },
            {
              "internalType": "uint256",
              "name": "startBlock",
              "type": "uint256"
            },
            {
              "internalType": "uint256",
              "name": "endBlock",
              "type": "uint256"
            },
            {
              "internalType": "uint256",
              "name": "id",
              "type": "uint256"
            }
          ],
          "internalType": "struct IOrderBook.Order[]",
          "name": "",
          "type": "tuple[]"
        },
        {
          "internalType": "enum IOrderBook.Status[]",
          "name": "",
          "type": "uint8[]"
        },
        {
          "components": [
            {
              "internalType": "address",
              "name": "taker",
              "type": "address"
            },
            {
              "internalType": "uint256",
              "name": "makeAmountBought",
              "type": "uint256"
            }
          ],
          "internalType": "struct IOrderBook.Bid[][]",
          "name": "",
          "type": "tuple[][]"
        }
      ],
      "stateMutability": "view",
      "type": "function"
    },
    {
      "inputs": [
        {
          "internalType": "uint256",
          "name": "id",
          "type": "uint256"
        }
      ],
      "name": "getRemainingAmount",
      "outputs": [
        {
          "internalType": "uint256",
          "name": "_remaining",
          "type": "uint256"
        }
      ],
      "stateMutability": "view",
      "type": "function"
    },
    {
      "inputs": [
        {
          "internalType": "uint256",
          "name": "makeAmount",
          "type": "uint256"
        },
        {
          "internalType": "uint256",
          "name": "takeAmount",
          "type": "uint256"
        },
        {
          "internalType": "address",
          "name": "makeAsset",
          "type": "address"
        },
        {
          "internalType": "address",
          "name": "takeAsset",
          "type": "address"
        },
        {
          "internalType": "uint256",
          "name": "endBlockTime",
          "type": "uint256"
        }
      ],
      "name": "openOrder",
      "outputs": [
        {
          "components": [
            {
              "internalType": "address",
              "name": "maker",
              "type": "address"
            },
            {
              "internalType": "address",
              "name": "makeAsset",
              "type": "address"
            },
            {
              "internalType": "uint256",
              "name": "makeAmount",
              "type": "uint256"
            },
            {
              "internalType": "address",
              "name": "taker",
              "type": "address"
            },
            {
              "internalType": "address",
              "name": "takeAsset",
              "type": "address"
            },
            {
              "internalType": "uint256",
              "name": "takeAmount",
              "type": "uint256"
            },
            {
              "internalType": "uint256",
              "name": "salt",
              "type": "uint256"
            },
            {
              "internalType": "uint256",
              "name": "startBlock",
              "type": "uint256"
            },
            {
              "internalType": "uint256",
              "name": "endBlock",
              "type": "uint256"
            },
            {
              "internalType": "uint256",
              "name": "id",
              "type": "uint256"
            }
          ],
          "internalType": "struct IOrderBook.Order",
          "name": "",
          "type": "tuple"
        }
      ],
      "stateMutability": "nonpayable",
      "type": "function"
    },
    {
      "inputs": [
        {
          "internalType": "uint256",
          "name": "id",
          "type": "uint256"
        },
        {
          "internalType": "uint256",
          "name": "amount",
          "type": "uint256"
        }
      ],
      "name": "takeOrder",
      "outputs": [
        {
          "internalType": "bool",
          "name": "success",
          "type": "bool"
        }
      ],
      "stateMutability": "nonpayable",
      "type": "function"
    },
    {
      "inputs": [
        {
          "internalType": "uint256",
          "name": "id",
          "type": "uint256"
        }
      ],
      "name": "cancelOrder",
      "outputs": [
        {
          "internalType": "bool",
          "name": "success",
          "type": "bool"
        }
      ],
      "stateMutability": "nonpayable",
      "type": "function"
    }
  ],
  "bytecode": "0x608060405234801561001057600080fd5b50612c19806100206000396000f3fe608060405234801561001057600080fd5b50600436106101165760003560e01c80638129fc1c116100a2578063af2f577411610071578063af2f577414610312578063da18ddc314610325578063eabd9a8114610357578063f6252ff21461036a578063fb4ca3b61461037d57610116565b80638129fc1c1461021657806389a337711461022057806399eeda0214610233578063a7256e291461024657610116565b806342b50a7a116100e957806342b50a7a146101ae578063453ec0be146101d0578063490783cc146101e8578063514fcac7146101fb5780636c1438621461020e57610116565b806305b3a19e1461011b57806307f48523146101445780632e2dc43e146101745780632eab93cb1461018b575b600080fd5b61012e61012936600461287f565b610390565b60405161013b9190612b13565b60405180910390f35b61016761015236600461282e565b60356020526000908152604090205460ff1681565b60405161013b9190612ace565b61017c61091a565b60405161013b93929190612a2f565b61019e61019936600461285e565b610c63565b604051901515815260200161013b565b6101c16101bc36600461282e565b611192565b60405161013b93929190612b22565b6033546101da9081565b60405190815260200161013b565b61017c6101f63660046127f4565b6112b8565b61019e61020936600461282e565b611635565b6101da61194b565b61021e61195b565b005b61019e61022e36600461282e565b611a64565b61017c6102413660046127f4565b611a7a565b6102b561025436600461282e565b60346020526000908152604090208054600182015460028301546003840154600485015460058601546006870154600788015460088901546009909901546001600160a01b039889169997891698969795871696909416949293919290918a565b604080516001600160a01b039b8c168152998b1660208b0152890197909752948816606088015296909216608086015260a085015260c084015260e08301939093526101008201929092526101208101919091526101400161013b565b61017c6103203660046127f4565b611dd8565b61033861033336600461285e565b61219a565b604080516001600160a01b03909316835260208301919091520161013b565b61017c6103653660046127f4565b6121e0565b6101da61037836600461282e565b61254f565b61019e61038b36600461282e565b612637565b610398612766565b600260015414156103c45760405162461bcd60e51b81526004016103bb90612adc565b60405180910390fd5b60026001556001600160a01b03841661041f5760405162461bcd60e51b815260206004820152601a60248201527f496e76616c6964204d616b65204173736574204164647265737300000000000060448201526064016103bb565b6001600160a01b0383166104755760405162461bcd60e51b815260206004820152601a60248201527f496e76616c69642054616b65204173736574204164647265737300000000000060448201526064016103bb565b600086116104be5760405162461bcd60e51b815260206004820152601660248201527504d616b6520616d6f756e742063616e277420626520360541b60448201526064016103bb565b600085116105075760405162461bcd60e51b8152602060048201526016602482015275054616b6520616d6f756e742063616e277420626520360541b60448201526064016103bb565b826001600160a01b0316846001600160a01b031614156105735760405162461bcd60e51b815260206004820152602160248201527f54616b6520616e64204d616b6520617265207468652073616d6520746f6b656e6044820152607360f81b60648201526084016103bb565b4282116105b15760405162461bcd60e51b815260206004820152600c60248201526b496e76616c6964204461746560a01b60448201526064016103bb565b6040516370a0823160e01b815233600482015286906001600160a01b038616906370a082319060240160206040518083038186803b1580156105f257600080fd5b505afa158015610606573d6000803e3d6000fd5b505050506040513d601f19601f8201168201806040525081019061062a9190612846565b10156106785760405162461bcd60e51b815260206004820152601f60248201527f496e73756666696369656e74204d616b652041737365742042616c616e63650060448201526064016103bb565b610680612766565b3381526040810187905260a081018690526001600160a01b038581166020830152841660808201524260e0820152610100810183905260335461012082015280603460006106cd60335490565b815260208082019290925260409081016000908120845181546001600160a01b03199081166001600160a01b03928316178355948601516001830180548716918316919091179055858401516002830155606086015160038301805487169183169190911790556080860151600480840180549097169183169190911790955560a0860151600583015560c0860151600683015560e0860151600783015561010086015160088301556101209095015160099091015590516323b872dd60e01b81523392810192909252306024830152604482018a9052918716906323b872dd90606401602060405180830381600087803b1580156107cb57600080fd5b505af11580156107df573d6000803e3d6000fd5b505050506040513d601f19601f82011682018060405250810190610803919061280e565b905060006035600061081460335490565b81526020810191909152604001600020805460ff1916600183600381111561084c57634e487b7160e01b600052602160045260246000fd5b0217905550806108965760405162461bcd60e51b8152602060048201526015602482015274151c985b9cd9995c88155b9cdd58d8d95cdcd99d5b605a1b60448201526064016103bb565b336108a060335490565b604080518b8152602081018b90524281830152606081018890526001600160a01b038a81166080830152891660a082015290517fcacb0226fe2d3912c1d8262ef555a3140dbddc250b928b729aab9bc9abb21f399181900360c00190a361090b603380546001019055565b50600180559695505050505050565b6060806060600061092a60335490565b6001600160401b0381111561094f57634e487b7160e01b600052604160045260246000fd5b60405190808252806020026020018201604052801561098857816020015b610975612766565b81526020019060019003908161096d5790505b509050600061099660335490565b6001600160401b038111156109bb57634e487b7160e01b600052604160045260246000fd5b6040519080825280602002602001820160405280156109e4578160200160208202803683370190505b50905060006109f260335490565b6001600160401b03811115610a1757634e487b7160e01b600052604160045260246000fd5b604051908082528060200260200182016040528015610a4a57816020015b6060815260200190600190039081610a355790505b50905060005b603354811015610c565760008181526034602090815260409182902082516101408101845281546001600160a01b039081168252600183015481169382019390935260028201549381019390935260038101548216606084015260048101549091166080830152600581015460a0830152600681015460c0830152600781015460e08301526008810154610100830152600901546101208201528451859083908110610b0c57634e487b7160e01b600052603260045260246000fd5b60200260200101819052506035600082815260200190815260200160002060009054906101000a900460ff16838281518110610b5857634e487b7160e01b600052603260045260246000fd5b60200260200101906003811115610b7f57634e487b7160e01b600052602160045260246000fd5b90816003811115610ba057634e487b7160e01b600052602160045260246000fd5b905250600081815260366020908152604080832080548251818502810185019093528083529193909284015b82821015610c14576000848152602090819020604080518082019091526002850290910180546001600160a01b03168252600190810154828401529083529092019101610bcc565b50505050828281518110610c3857634e487b7160e01b600052603260045260246000fd5b60200260200101819052508080610c4e90612bb2565b915050610a50565b5091945092509050909192565b600060026001541415610c885760405162461bcd60e51b81526004016103bb90612adc565b60026001818155600085815260346020908152604080832081516101408101835281546001600160a01b03908116825295820154861693810193909352948501549082015260038401548316606082015260048401549092166080830152600583015460a0830152600683015460c0830152600783015460e0830152600883015461010083015260099092015461012082015290610d258561254f565b905060008411610d685760405162461bcd60e51b815260206004820152600e60248201526d125b9d985b1a5908105b5bdd5b9d60921b60448201526064016103bb565b60808201516040516370a0823160e01b815233600482015285916001600160a01b0316906370a082319060240160206040518083038186803b158015610dad57600080fd5b505afa158015610dc1573d6000803e3d6000fd5b505050506040513d601f19601f82011682018060405250810190610de59190612846565b1015610e335760405162461bcd60e51b815260206004820152601f60248201527f496e73756666696369656e742054616b652041737365742042616c616e63650060448201526064016103bb565b610e3c85612637565b610e885760405162461bcd60e51b815260206004820152601f60248201527f4f7264657220697320636f6d706c65746564206f722063616e63656c6c65640060448201526064016103bb565b6000858152603560205260409020805460ff1916600117905583808211610ec557506000858152603560205260409020805460ff19166002179055805b6000610eec8460400151610ee68660a001518561274790919063ffffffff16565b9061275a565b60408051808201825233808252602080830187815260008d815260368352858120805460018082018355918352848320875160029092020180546001600160a01b0319166001600160a01b0392831617815593519390910192909255918a0151945163a9059cbb60e01b8152600481019390935260248301889052949550919391929091169063a9059cbb90604401602060405180830381600087803b158015610f9557600080fd5b505af1158015610fa9573d6000803e3d6000fd5b505050506040513d601f19601f82011682018060405250810190610fcd919061280e565b9050806110145760405162461bcd60e51b815260206004820152601560248201527413585ad95c881dda5d1a191c985dc811985a5b1959605a1b60448201526064016103bb565b608086015186516040516323b872dd60e01b81523360048201526001600160a01b039182166024820152604481018690529116906323b872dd90606401602060405180830381600087803b15801561106b57600080fd5b505af115801561107f573d6000803e3d6000fd5b505050506040513d601f19601f820116820180604052508101906110a3919061280e565b9050806110e95760405162461bcd60e51b815260206004820152601460248201527315185ad95c8819195c1bdcda5d0811985a5b195960621b60448201526064016103bb565b336001600160a01b031686600001516001600160a01b03168a7f94bae693f27e578575f4ee5bf95223365cb4707a876b19abc2170b05f7fef27d89602001518a608001518b60e001518c61010001518f8c8e6111459190612b9b565b604080516001600160a01b039788168152969095166020870152938501929092526060840152608083015260a082015260c00160405180910390a450506001808055979650505050505050565b61119a612766565b600082815260346020908152604080832060358352818420546036845282852083516101408101855283546001600160a01b03908116825260018501548116828801526002850154828701526003850154811660608381019190915260048601549091166080830152600585015460a0830152600685015460c0830152600785015460e0830152600885015461010083015260099094015461012082015281548551818802810188019096528086529395909460ff909316939192918391889084015b828210156112a5576000848152602090819020604080518082019091526002850290910180546001600160a01b0316825260019081015482840152908352909201910161125d565b5050505090509250925092509193909250565b606080606060006112c860335490565b6001600160401b038111156112ed57634e487b7160e01b600052604160045260246000fd5b60405190808252806020026020018201604052801561132657816020015b611313612766565b81526020019060019003908161130b5790505b509050600061133460335490565b6001600160401b0381111561135957634e487b7160e01b600052604160045260246000fd5b604051908082528060200260200182016040528015611382578160200160208202803683370190505b509050600061139060335490565b6001600160401b038111156113b557634e487b7160e01b600052604160045260246000fd5b6040519080825280602002602001820160405280156113e857816020015b60608152602001906001900390816113d35790505b50905060005b6033548110156116275761140181612637565b15611615576000818152603460205260409020600401546001600160a01b03898116911614156116155760008181526034602090815260409182902082516101408101845281546001600160a01b039081168252600183015481169382019390935260028201549381019390935260038101548216606084015260048101549091166080830152600581015460a0830152600681015460c0830152600781015460e083015260088101546101008301526009015461012082015284518590839081106114dd57634e487b7160e01b600052603260045260246000fd5b60200260200101819052506035600082815260200190815260200160002060009054906101000a900460ff1683828151811061152957634e487b7160e01b600052603260045260246000fd5b6020026020010190600381111561155057634e487b7160e01b600052602160045260246000fd5b9081600381111561157157634e487b7160e01b600052602160045260246000fd5b905250600081815260366020908152604080832080548251818502810185019093528083529193909284015b828210156115e5576000848152602090819020604080518082019091526002850290910180546001600160a01b0316825260019081015482840152908352909201910161159d565b5050505082828151811061160957634e487b7160e01b600052603260045260246000fd5b60200260200101819052505b8061161f81612bb2565b9150506113ee565b509196909550909350915050565b60008181526034602052604081205482906001600160a01b031633146116a95760405162461bcd60e51b815260206004820152602360248201527f4f6e6c79204d61726b65722063616e2063616e63656c207468656972206f726460448201526265727360e81b60648201526084016103bb565b600260015414156116cc5760405162461bcd60e51b81526004016103bb90612adc565b6002600181815560008581526034602090815260409182902082516101408101845281546001600160a01b03908116825294820154851692810192909252938401549181019190915260038301548216606082015260048301549091166080820152600582015460a0820152600682015460c0820152600782015460e0820152600882015461010082015260099091015461012082015261176c84612637565b6117c45760405162461bcd60e51b8152602060048201526024808201527f4f7264657220697320416c726561647920436c6f736564206f722046756c66696044820152631b1b195960e21b60648201526084016103bb565b60006117cf8561254f565b602083015160405163a9059cbb60e01b8152336004820152602481018390529192506000916001600160a01b039091169063a9059cbb90604401602060405180830381600087803b15801561182357600080fd5b505af1158015611837573d6000803e3d6000fd5b505050506040513d601f19601f8201168201806040525081019061185b919061280e565b9050806118a05760405162461bcd60e51b81526020600482015260136024820152721499599d5b990813585ad95c8811985a5b1959606a1b60448201526064016103bb565b600086815260356020908152604091829020805460ff1916600317905584518582015160808088015160a0808a015160e08b01516101008c015189516001600160a01b039788168152948716988501989098529783018a9052606083015291810195909552840192909252169087907f3e757ca1447cdaed454b3c1eb637abec89bd55db7e9c2ad2ae0717a0a01f561f9060c00160405180910390a350506001808055949350505050565b600061195660335490565b905090565b600054610100900460ff161580801561197b5750600054600160ff909116105b806119955750303b158015611995575060005460ff166001145b6119f85760405162461bcd60e51b815260206004820152602e60248201527f496e697469616c697a61626c653a20636f6e747261637420697320616c72656160448201526d191e481a5b9a5d1a585b1a5e995960921b60648201526084016103bb565b6000805460ff191660011790558015611a1b576000805461ff0019166101001790555b8015611a61576000805461ff0019169055604051600181527f7f26b83ff96e1f2b6a682f133852f6798a09c465da95921460cefb38474024989060200160405180910390a15b50565b6000611a6f60335490565b82111590505b919050565b60608060606000611a8a60335490565b6001600160401b03811115611aaf57634e487b7160e01b600052604160045260246000fd5b604051908082528060200260200182016040528015611ae857816020015b611ad5612766565b815260200190600190039081611acd5790505b5090506000611af660335490565b6001600160401b03811115611b1b57634e487b7160e01b600052604160045260246000fd5b604051908082528060200260200182016040528015611b44578160200160208202803683370190505b5090506000611b5260335490565b6001600160401b03811115611b7757634e487b7160e01b600052604160045260246000fd5b604051908082528060200260200182016040528015611baa57816020015b6060815260200190600190039081611b955790505b50905060005b603354811015611627576000818152603460205260409020546001600160a01b0389811691161415611dc65760008181526034602090815260409182902082516101408101845281546001600160a01b039081168252600183015481169382019390935260028201549381019390935260038101548216606084015260048101549091166080830152600581015460a0830152600681015460c0830152600781015460e08301526008810154610100830152600901546101208201528451859083908110611c8e57634e487b7160e01b600052603260045260246000fd5b60200260200101819052506035600082815260200190815260200160002060009054906101000a900460ff16838281518110611cda57634e487b7160e01b600052603260045260246000fd5b60200260200101906003811115611d0157634e487b7160e01b600052602160045260246000fd5b90816003811115611d2257634e487b7160e01b600052602160045260246000fd5b905250600081815260366020908152604080832080548251818502810185019093528083529193909284015b82821015611d96576000848152602090819020604080518082019091526002850290910180546001600160a01b03168252600190810154828401529083529092019101611d4e565b50505050828281518110611dba57634e487b7160e01b600052603260045260246000fd5b60200260200101819052505b80611dd081612bb2565b915050611bb0565b60608060606000611de860335490565b6001600160401b03811115611e0d57634e487b7160e01b600052604160045260246000fd5b604051908082528060200260200182016040528015611e4657816020015b611e33612766565b815260200190600190039081611e2b5790505b5090506000611e5460335490565b6001600160401b03811115611e7957634e487b7160e01b600052604160045260246000fd5b604051908082528060200260200182016040528015611ea2578160200160208202803683370190505b5090506000611eb060335490565b6001600160401b03811115611ed557634e487b7160e01b600052604160045260246000fd5b604051908082528060200260200182016040528015611f0857816020015b6060815260200190600190039081611ef35790505b50905060005b6033548110156116275760005b60008281526036602052604090205481101561218757600082815260366020526040902080546001600160a01b038b16919083908110611f6b57634e487b7160e01b600052603260045260246000fd5b60009182526020909120600290910201546001600160a01b031614156121755760008281526034602090815260409182902082516101408101845281546001600160a01b039081168252600183015481169382019390935260028201549381019390935260038101548216606084015260048101549091166080830152600581015460a0830152600681015460c0830152600781015460e0830152600881015461010083015260090154610120820152855186908490811061203d57634e487b7160e01b600052603260045260246000fd5b60200260200101819052506035600083815260200190815260200160002060009054906101000a900460ff1684838151811061208957634e487b7160e01b600052603260045260246000fd5b602002602001019060038111156120b057634e487b7160e01b600052602160045260246000fd5b908160038111156120d157634e487b7160e01b600052602160045260246000fd5b905250600082815260366020908152604080832080548251818502810185019093528083529193909284015b82821015612145576000848152602090819020604080518082019091526002850290910180546001600160a01b031682526001908101548284015290835290920191016120fd565b5050505083838151811061216957634e487b7160e01b600052603260045260246000fd5b60200260200101819052505b8061217f81612bb2565b915050611f1b565b508061219281612bb2565b915050611f0e565b603660205281600052604060002081815481106121b657600080fd5b6000918252602090912060029091020180546001909101546001600160a01b039091169250905082565b606080606060006121f060335490565b6001600160401b0381111561221557634e487b7160e01b600052604160045260246000fd5b60405190808252806020026020018201604052801561224e57816020015b61223b612766565b8152602001906001900390816122335790505b509050600061225c60335490565b6001600160401b0381111561228157634e487b7160e01b600052604160045260246000fd5b6040519080825280602002602001820160405280156122aa578160200160208202803683370190505b50905060006122b860335490565b6001600160401b038111156122dd57634e487b7160e01b600052604160045260246000fd5b60405190808252806020026020018201604052801561231057816020015b60608152602001906001900390816122fb5790505b50905060005b6033548110156116275761232981612637565b1561253d576000818152603460205260409020600101546001600160a01b038981169116141561253d5760008181526034602090815260409182902082516101408101845281546001600160a01b039081168252600183015481169382019390935260028201549381019390935260038101548216606084015260048101549091166080830152600581015460a0830152600681015460c0830152600781015460e0830152600881015461010083015260090154610120820152845185908390811061240557634e487b7160e01b600052603260045260246000fd5b60200260200101819052506035600082815260200190815260200160002060009054906101000a900460ff1683828151811061245157634e487b7160e01b600052603260045260246000fd5b6020026020010190600381111561247857634e487b7160e01b600052602160045260246000fd5b9081600381111561249957634e487b7160e01b600052602160045260246000fd5b905250600081815260366020908152604080832080548251818502810185019093528083529193909284015b8282101561250d576000848152602090819020604080518082019091526002850290910180546001600160a01b031682526001908101548284015290835290920191016124c5565b5050505082828151811061253157634e487b7160e01b600052603260045260246000fd5b60200260200101819052505b8061254781612bb2565b915050612316565b600081815260366020908152604080832080548251818502810185019093528083528493849084015b828210156125c0576000848152602090819020604080518082019091526002850290910180546001600160a01b03168252600190810154828401529083529092019101612578565b50505060008581526034602052604081206002015492935090505b825181101561262f5782818151811061260457634e487b7160e01b600052603260045260246000fd5b6020026020010151602001518261261b9190612b9b565b91508061262781612bb2565b9150506125db565b509392505050565b600061264282611a64565b6126845760405162461bcd60e51b815260206004820152601360248201527213dc99195c88191bd95cdb89dd08195e1a5cdd606a1b60448201526064016103bb565b60008281526034602052604090206008015442106126d45760405162461bcd60e51b815260206004820152600d60248201526c13dc99195c88115e1c1a5c9959609a1b60448201526064016103bb565b60008281526035602052604081205460ff16600381111561270557634e487b7160e01b600052602160045260246000fd5b14806127415750600160008381526035602052604090205460ff16600381111561273f57634e487b7160e01b600052602160045260246000fd5b145b92915050565b60006127538284612b7c565b9392505050565b60006127538284612b5c565b60405180610140016040528060006001600160a01b0316815260200160006001600160a01b031681526020016000815260200160006001600160a01b0316815260200160006001600160a01b0316815260200160008152602001600081526020016000815260200160008152602001600081525090565b80356001600160a01b0381168114611a7557600080fd5b600060208284031215612805578081fd5b612753826127dd565b60006020828403121561281f578081fd5b81518015158114612753578182fd5b60006020828403121561283f578081fd5b5035919050565b600060208284031215612857578081fd5b5051919050565b60008060408385031215612870578081fd5b50508035926020909101359150565b600080600080600060a08688031215612896578081fd5b85359450602086013593506128ad604087016127dd565b92506128bb606087016127dd565b949793965091946080013592915050565b60008282518085526020808601955080818302840101818601855b8481101561291557601f19868403018952612903838351612922565b988401989250908301906001016128e7565b5090979650505050505050565b6000815180845260208085019450808401835b8381101561296557815180516001600160a01b031688528301518388015260409096019590820190600101612935565b509495945050505050565b6004811061298e57634e487b7160e01b600052602160045260246000fd5b9052565b80516001600160a01b0316825260208101516129b960208401826001600160a01b03169052565b506040810151604083015260608101516129de60608401826001600160a01b03169052565b5060808101516129f960808401826001600160a01b03169052565b5060a0818101519083015260c0808201519083015260e08082015190830152610100808201519083015261012090810151910152565b606080825284519082018190526000906020906080840190828801845b82811015612a7357612a5f848351612992565b610140939093019290840190600101612a4c565b50505083810382850152855180825286830191830190845b81811015612aae57612a9e838551612970565b9284019291840191600101612a8b565b50508481036040860152612ac281876128cc565b98975050505050505050565b602081016127418284612970565b6020808252601f908201527f5265656e7472616e637947756172643a207265656e7472616e742063616c6c00604082015260600190565b61014081016127418284612992565b6000610180612b318387612992565b612b3f610140840186612970565b80610160840152612b5281840185612922565b9695505050505050565b600082612b7757634e487b7160e01b81526012600452602481fd5b500490565b6000816000190483118215151615612b9657612b96612bcd565b500290565b600082821015612bad57612bad612bcd565b500390565b6000600019821415612bc657612bc6612bcd565b5060010190565b634e487b7160e01b600052601160045260246000fdfea2646970667358221220710c4df9976fc54fd14448f8145285927247b9a1fdad2e3a562c46a0fc65320b64736f6c63430008020033",
  "immutableReferences": {},
  "source": "\n/// SPDX-License-Identifier: MIT\npragma solidity ^0.8.2;\n\nimport \"@openzeppelin/contracts-upgradeable/security/ReentrancyGuardUpgradeable.sol\";\nimport \"@openzeppelin/contracts-upgradeable/token/ERC20/ERC20Upgradeable.sol\";\nimport \"@openzeppelin/contracts-upgradeable/utils/math/SafeMathUpgradeable.sol\";\nimport \"@openzeppelin/contracts-upgradeable/utils/CountersUpgradeable.sol\";\nimport \"@openzeppelin/contracts-upgradeable/proxy/utils/Initializable.sol\";\n\n//@notice OrderBook Interface\nimport \"./interfaces/IOrderBook.sol\";\n/**s\n * @title OrderBookV3 Contract\n * @author Hadi Khairallah\n **/\ncontract OrderBookV3 is Initializable,ReentrancyGuardUpgradeable, IOrderBook{\n\n    /// @notice Using a counter to increment Order count\n    using CountersUpgradeable for CountersUpgradeable.Counter;\n\n    /// @notice using safe math for uints\n    using SafeMathUpgradeable for uint256;\n\n    /// @notice Order Id counter\n    CountersUpgradeable.Counter public _currentOrderId;\n\n    // @notice OrderBooks\n    mapping(uint256 => Order) public _orderBooks;\n\n    // @notice Status for Orders (can be part of the Order Struct)\n    mapping(uint256 => Status) public _orderStatus;\n\n    // @notice Bids for Order\n    mapping(uint256 => Bid[]) public _orderBids;\n\n    function initialize() public initializer {}\n\n    modifier onlyMaker(uint id) {\n        require(\n            _orderBooks[id].maker == msg.sender,\n            \"Only Marker can cancel their orders\"\n        );\n        _;\n    }\n\n    function getCurrentId () public view returns (uint){\n        return _currentOrderId.current();\n    }\n\n    function checkOrderExists(uint id) public view returns(bool){\n        return id <= _currentOrderId.current();\n    }\n\n    function canFill(uint256 id) public view returns (bool){\n        require(checkOrderExists(id), \"Order doesn't exist\");\n        require(_orderBooks[id].endBlock > block.timestamp, \"Order Expired\");\n        return (_orderStatus[id] == Status.OPENED || _orderStatus[id] == Status.PARTIALLY_FILLED );\n    }\n\n\n    function getOrders() external view returns (Order[] memory, Status[] memory, Bid[][] memory){\n        Order[] memory order = new Order[](_currentOrderId.current());\n        Status[] memory status = new Status[](_currentOrderId.current());\n        Bid[][] memory bids = new Bid[][](_currentOrderId.current());\n        for (uint i = 0; i < _currentOrderId.current(); i++) {\n            order[i] = _orderBooks[i];\n            status[i] = _orderStatus[i];\n            bids[i] = _orderBids[i];\n        }\n        return (order,status,bids);\n    }\n\n    function getOrderById(uint id) external view returns (Order memory, Status, Bid[] memory){\n        return (_orderBooks[id], _orderStatus[id], _orderBids[id]);\n    }\n\n    function getOrdersByMakeAsset(address asset) public view returns (Order[] memory, Status[] memory, Bid[][] memory){\n        Order[] memory order = new Order[](_currentOrderId.current());\n        Status[] memory status = new Status[](_currentOrderId.current());\n        Bid[][] memory bids = new Bid[][](_currentOrderId.current());\n        for (uint i = 0; i < _currentOrderId.current(); i++) {\n            if(canFill(i)){\n                if(_orderBooks[i].makeAsset==asset){\n                    order[i] = _orderBooks[i];\n                    status[i] = _orderStatus[i];\n                    bids[i] = _orderBids[i];\n                }\n            }\n        }\n        return (order,status,bids);\n    }\n\n    function getOrdersByTakeAsset(address asset) public view returns (Order[] memory, Status[] memory, Bid[][] memory){\n        Order[] memory order = new Order[](_currentOrderId.current());\n        Status[] memory status = new Status[](_currentOrderId.current());\n        Bid[][] memory bids = new Bid[][](_currentOrderId.current());\n        for (uint i = 0; i < _currentOrderId.current(); i++) {\n            if(canFill(i)){\n                if(_orderBooks[i].takeAsset==asset){\n                    order[i] = _orderBooks[i];\n                    status[i] = _orderStatus[i];\n                    bids[i] = _orderBids[i];\n                }\n            }\n        }\n        return (order,status,bids);\n    }\n\n    function getOrdersByAddress(address makerAddress) public view returns (Order[] memory, Status[] memory, Bid[][] memory){\n        Order[] memory order = new Order[](_currentOrderId.current());\n        Status[] memory status = new Status[](_currentOrderId.current());\n        Bid[][] memory bids = new Bid[][](_currentOrderId.current());\n        for (uint i = 0; i < _currentOrderId.current(); i++) {\n            if(_orderBooks[i].maker== makerAddress){\n                order[i] = _orderBooks[i];\n                status[i] = _orderStatus[i];\n                bids[i] = _orderBids[i];\n            }\n        }\n        return (order,status,bids);\n    }\n\n    function getOrdersWithBidsByAddress(address bidderAddress)  public view returns (Order[] memory, Status[] memory, Bid[][] memory){\n        Order[] memory order = new Order[](_currentOrderId.current());\n        Status[] memory status = new Status[](_currentOrderId.current());\n        Bid[][] memory bids = new Bid[][](_currentOrderId.current());\n        for (uint i = 0; i < _currentOrderId.current(); i++) {\n            for(uint j = 0; j < _orderBids[i].length ; j++){\n                if(_orderBids[i][j].taker == bidderAddress){\n                    order[i] = _orderBooks[i];\n                    status[i] = _orderStatus[i];\n                    bids[i] = _orderBids[i];\n                }\n            }\n        }\n        return (order,status,bids);\n    }\n    // @notice Get Remaining amount by Order Id\n    function getRemainingAmount(uint id) public view returns (uint _remaining){\n        Bid[] memory bids = _orderBids[id];\n        uint remaining = _orderBooks[id].makeAmount;\n        for (uint i = 0; i < bids.length; i++) {\n            remaining = remaining - bids[i].makeAmountBought;\n        }\n        return remaining;\n    }\n\n    // @notice Open Order\n    function openOrder (\n        uint256 makeAmount,\n        uint256 takeAmount,\n        address makeAsset,\n        address takeAsset,\n        uint256 endBlockTime\n    ) external nonReentrant returns(Order memory){\n        require(makeAsset != address(0), \"Invalid Make Asset Address\");\n        require(takeAsset != address(0), \"Invalid Take Asset Address\");\n        require(makeAmount > 0, \"Make amount can't be 0\");\n        require(takeAmount > 0, \"Take amount can't be 0\");\n        require(makeAsset != takeAsset, \"Take and Make are the same tokens\");\n        require(endBlockTime > block.timestamp, \"Invalid Date\");\n        require(\n            ERC20Upgradeable(makeAsset).balanceOf(msg.sender) >= makeAmount,\n            \"Insufficient Make Asset Balance\"\n        );\n\n\n\n        Order memory _order;\n\n        _order.maker = msg.sender;\n        _order.makeAmount = makeAmount;\n        _order.takeAmount = takeAmount;\n        _order.makeAsset = makeAsset;\n        _order.takeAsset = takeAsset;\n        _order.startBlock = block.timestamp;\n        _order.endBlock = endBlockTime;\n        _order.id = _currentOrderId.current();\n        _orderBooks[_currentOrderId.current()] = _order;\n\n        bool success = ERC20Upgradeable(makeAsset).transferFrom(\n            msg.sender,\n            address(this),\n            makeAmount\n        );\n\n        _orderStatus[_currentOrderId.current()] = Status.OPENED;\n\n        require(success, \"Transfer Unsuccessful\");\n        emit OpenOrderEvent(\n            _currentOrderId.current(),\n            msg.sender,\n            makeAmount,\n            takeAmount,\n            block.timestamp,\n            endBlockTime,\n            makeAsset,\n            takeAsset\n        );\n        _currentOrderId.increment();\n        return _order;\n    }\n\n    function takeOrder(uint id, uint256 amount) external nonReentrant returns (bool success){\n        Order memory order = _orderBooks[id];\n        uint256 _remaining = getRemainingAmount(id);\n        require(amount > 0, \"Invalid Amount\");\n        require(\n            ERC20Upgradeable(order.takeAsset).balanceOf(msg.sender) >= amount,\n            \"Insufficient Take Asset Balance\"\n        );\n        require(canFill(id), \"Order is completed or cancelled\");\n\n        uint256 amountMake = amount;\n\n        _orderStatus[id] =Status.PARTIALLY_FILLED;\n        if(_remaining<=amount){\n            amountMake = _remaining;\n            _orderStatus[id] = Status.FULFILLED;\n        }\n\n        uint256 takeAssetAmount = (amountMake.mul(order.takeAmount)).div(order.makeAmount);\n\n        Bid memory bid = Bid(msg.sender, amountMake);\n\n        _orderBids[id].push(bid);\n        bool result = ERC20Upgradeable(order.makeAsset).transfer(msg.sender, amountMake);\n        require(result, \"Maker withdraw Failed\");\n        result = ERC20Upgradeable(order.takeAsset).transferFrom(msg.sender, order.maker, takeAssetAmount);\n        require(result, \"Taker deposit Failed\");\n        emit FillingOrderEvent(\n            id,\n            order.maker,\n            msg.sender,\n            order.makeAsset,\n            order.takeAsset,\n            order.startBlock,\n            order.endBlock,\n            amount,\n            _remaining - amountMake\n        );\n        success = true;\n    }\n\n    function cancelOrder(uint256 id)  external  onlyMaker(id) nonReentrant returns(bool success){\n        Order memory order = _orderBooks[id];\n        require(canFill(id), \"Order is Already Closed or Fulfilled\");\n        uint256 _remaining = getRemainingAmount(id);\n        bool result = ERC20Upgradeable(order.makeAsset).transfer(msg.sender, _remaining);\n        require(result, \"Refund Maker Failed\");\n        _orderStatus[id] = Status.CANCELED;\n        emit CancelOrderEvent(\n                id,\n                order.maker,\n                order.makeAsset,\n                order.takeAsset,\n                _remaining,\n                order.takeAmount,\n                order.startBlock,\n                order.endBlock\n            );\n            success = true;\n        }\n}",
  "sourcePath": "/Users/BrolySaiyan/Desktop/contracts/contracts/OrderBookV3.sol",
  "compiler": {
    "name": "solc",
    "version": "0.8.2+commit.661d1103.Emscripten.clang"
  },
  "schemaVersion": "3.4.7",
  "updatedAt": "2022-07-09T02:20:50.760Z",
  "devdoc": {
    "author": "Hadi Khairallah*",
    "kind": "dev",
    "methods": {},
    "title": "OrderBookV3 Contract",
    "version": 1
  },
  "userdoc": {
    "kind": "user",
    "methods": {
      "_currentOrderId()": {
        "notice": "Order Id counter"
      }
    },
    "notice": "s",
    "version": 1
  }
}