{
  "contractName": "OrderBook",
  "abi": [
    {
      "anonymous": false,
      "inputs": [
        {
          "indexed": true,
          "internalType": "uint256",
          "name": "orderId",
          "type": "uint256"
        },
        {
          "indexed": true,
          "internalType": "address",
          "name": "maker",
          "type": "address"
        },
        {
          "indexed": false,
          "internalType": "address",
          "name": "makeAsset",
          "type": "address"
        },
        {
          "indexed": false,
          "internalType": "address",
          "name": "takeAsset",
          "type": "address"
        },
        {
          "indexed": false,
          "internalType": "uint256",
          "name": "makeAmount",
          "type": "uint256"
        },
        {
          "indexed": false,
          "internalType": "uint256",
          "name": "takeAmount",
          "type": "uint256"
        },
        {
          "indexed": false,
          "internalType": "uint256",
          "name": "startBlock",
          "type": "uint256"
        },
        {
          "indexed": false,
          "internalType": "uint256",
          "name": "endBlock",
          "type": "uint256"
        }
      ],
      "name": "CancelOrderEvent",
      "type": "event"
    },
    {
      "anonymous": false,
      "inputs": [
        {
          "indexed": true,
          "internalType": "uint256",
          "name": "orderId",
          "type": "uint256"
        },
        {
          "indexed": true,
          "internalType": "address",
          "name": "maker",
          "type": "address"
        },
        {
          "indexed": true,
          "internalType": "address",
          "name": "taker",
          "type": "address"
        },
        {
          "indexed": false,
          "internalType": "address",
          "name": "makeAsset",
          "type": "address"
        },
        {
          "indexed": false,
          "internalType": "address",
          "name": "takeAsset",
          "type": "address"
        },
        {
          "indexed": false,
          "internalType": "uint256",
          "name": "startBlock",
          "type": "uint256"
        },
        {
          "indexed": false,
          "internalType": "uint256",
          "name": "endBlock",
          "type": "uint256"
        },
        {
          "indexed": false,
          "internalType": "uint256",
          "name": "quantity",
          "type": "uint256"
        },
        {
          "indexed": false,
          "internalType": "uint256",
          "name": "fulfilledQuantity",
          "type": "uint256"
        }
      ],
      "name": "FillingOrderEvent",
      "type": "event"
    },
    {
      "anonymous": false,
      "inputs": [
        {
          "indexed": false,
          "internalType": "uint8",
          "name": "version",
          "type": "uint8"
        }
      ],
      "name": "Initialized",
      "type": "event"
    },
    {
      "anonymous": false,
      "inputs": [
        {
          "indexed": true,
          "internalType": "uint256",
          "name": "orderId",
          "type": "uint256"
        },
        {
          "indexed": true,
          "internalType": "address",
          "name": "maker",
          "type": "address"
        },
        {
          "indexed": false,
          "internalType": "uint256",
          "name": "makeAmount",
          "type": "uint256"
        },
        {
          "indexed": false,
          "internalType": "uint256",
          "name": "takeAmount",
          "type": "uint256"
        },
        {
          "indexed": false,
          "internalType": "uint256",
          "name": "startBlock",
          "type": "uint256"
        },
        {
          "indexed": false,
          "internalType": "uint256",
          "name": "endBlock",
          "type": "uint256"
        },
        {
          "indexed": false,
          "internalType": "address",
          "name": "makeAsset",
          "type": "address"
        },
        {
          "indexed": false,
          "internalType": "address",
          "name": "takeAsset",
          "type": "address"
        }
      ],
      "name": "OpenOrderEvent",
      "type": "event"
    },
    {
      "inputs": [],
      "name": "_currentOrderId",
      "outputs": [
        {
          "internalType": "uint256",
          "name": "_value",
          "type": "uint256"
        }
      ],
      "stateMutability": "view",
      "type": "function"
    },
    {
      "inputs": [
        {
          "internalType": "uint256",
          "name": "",
          "type": "uint256"
        },
        {
          "internalType": "uint256",
          "name": "",
          "type": "uint256"
        }
      ],
      "name": "_orderBids",
      "outputs": [
        {
          "internalType": "address",
          "name": "taker",
          "type": "address"
        },
        {
          "internalType": "uint256",
          "name": "makeAmountBought",
          "type": "uint256"
        }
      ],
      "stateMutability": "view",
      "type": "function"
    },
    {
      "inputs": [
        {
          "internalType": "uint256",
          "name": "",
          "type": "uint256"
        }
      ],
      "name": "_orderBooks",
      "outputs": [
        {
          "internalType": "address",
          "name": "maker",
          "type": "address"
        },
        {
          "internalType": "address",
          "name": "makeAsset",
          "type": "address"
        },
        {
          "internalType": "uint256",
          "name": "makeAmount",
          "type": "uint256"
        },
        {
          "internalType": "address",
          "name": "taker",
          "type": "address"
        },
        {
          "internalType": "address",
          "name": "takeAsset",
          "type": "address"
        },
        {
          "internalType": "uint256",
          "name": "takeAmount",
          "type": "uint256"
        },
        {
          "internalType": "uint256",
          "name": "salt",
          "type": "uint256"
        },
        {
          "internalType": "uint256",
          "name": "startBlock",
          "type": "uint256"
        },
        {
          "internalType": "uint256",
          "name": "endBlock",
          "type": "uint256"
        },
        {
          "internalType": "uint256",
          "name": "id",
          "type": "uint256"
        }
      ],
      "stateMutability": "view",
      "type": "function"
    },
    {
      "inputs": [
        {
          "internalType": "uint256",
          "name": "",
          "type": "uint256"
        }
      ],
      "name": "_orderStatus",
      "outputs": [
        {
          "internalType": "enum IOrderBook.Status",
          "name": "",
          "type": "uint8"
        }
      ],
      "stateMutability": "view",
      "type": "function"
    },
    {
      "inputs": [],
      "name": "initialize",
      "outputs": [],
      "stateMutability": "nonpayable",
      "type": "function"
    },
    {
      "inputs": [],
      "name": "getCurrentId",
      "outputs": [
        {
          "internalType": "uint256",
          "name": "",
          "type": "uint256"
        }
      ],
      "stateMutability": "view",
      "type": "function"
    },
    {
      "inputs": [
        {
          "internalType": "uint256",
          "name": "id",
          "type": "uint256"
        }
      ],
      "name": "checkOrderExists",
      "outputs": [
        {
          "internalType": "bool",
          "name": "",
          "type": "bool"
        }
      ],
      "stateMutability": "view",
      "type": "function"
    },
    {
      "inputs": [
        {
          "internalType": "uint256",
          "name": "id",
          "type": "uint256"
        }
      ],
      "name": "canFill",
      "outputs": [
        {
          "internalType": "bool",
          "name": "",
          "type": "bool"
        }
      ],
      "stateMutability": "view",
      "type": "function"
    },
    {
      "inputs": [],
      "name": "getOrders",
      "outputs": [
        {
          "components": [
            {
              "internalType": "address",
              "name": "maker",
              "type": "address"
            },
            {
              "internalType": "address",
              "name": "makeAsset",
              "type": "address"
            },
            {
              "internalType": "uint256",
              "name": "makeAmount",
              "type": "uint256"
            },
            {
              "internalType": "address",
              "name": "taker",
              "type": "address"
            },
            {
              "internalType": "address",
              "name": "takeAsset",
              "type": "address"
            },
            {
              "internalType": "uint256",
              "name": "takeAmount",
              "type": "uint256"
            },
            {
              "internalType": "uint256",
              "name": "salt",
              "type": "uint256"
            },
            {
              "internalType": "uint256",
              "name": "startBlock",
              "type": "uint256"
            },
            {
              "internalType": "uint256",
              "name": "endBlock",
              "type": "uint256"
            },
            {
              "internalType": "uint256",
              "name": "id",
              "type": "uint256"
            }
          ],
          "internalType": "struct IOrderBook.Order[]",
          "name": "",
          "type": "tuple[]"
        },
        {
          "internalType": "enum IOrderBook.Status[]",
          "name": "",
          "type": "uint8[]"
        },
        {
          "components": [
            {
              "internalType": "address",
              "name": "taker",
              "type": "address"
            },
            {
              "internalType": "uint256",
              "name": "makeAmountBought",
              "type": "uint256"
            }
          ],
          "internalType": "struct IOrderBook.Bid[][]",
          "name": "",
          "type": "tuple[][]"
        }
      ],
      "stateMutability": "view",
      "type": "function"
    },
    {
      "inputs": [
        {
          "internalType": "uint256",
          "name": "id",
          "type": "uint256"
        }
      ],
      "name": "getOrderById",
      "outputs": [
        {
          "components": [
            {
              "internalType": "address",
              "name": "maker",
              "type": "address"
            },
            {
              "internalType": "address",
              "name": "makeAsset",
              "type": "address"
            },
            {
              "internalType": "uint256",
              "name": "makeAmount",
              "type": "uint256"
            },
            {
              "internalType": "address",
              "name": "taker",
              "type": "address"
            },
            {
              "internalType": "address",
              "name": "takeAsset",
              "type": "address"
            },
            {
              "internalType": "uint256",
              "name": "takeAmount",
              "type": "uint256"
            },
            {
              "internalType": "uint256",
              "name": "salt",
              "type": "uint256"
            },
            {
              "internalType": "uint256",
              "name": "startBlock",
              "type": "uint256"
            },
            {
              "internalType": "uint256",
              "name": "endBlock",
              "type": "uint256"
            },
            {
              "internalType": "uint256",
              "name": "id",
              "type": "uint256"
            }
          ],
          "internalType": "struct IOrderBook.Order",
          "name": "",
          "type": "tuple"
        },
        {
          "internalType": "enum IOrderBook.Status",
          "name": "",
          "type": "uint8"
        },
        {
          "components": [
            {
              "internalType": "address",
              "name": "taker",
              "type": "address"
            },
            {
              "internalType": "uint256",
              "name": "makeAmountBought",
              "type": "uint256"
            }
          ],
          "internalType": "struct IOrderBook.Bid[]",
          "name": "",
          "type": "tuple[]"
        }
      ],
      "stateMutability": "view",
      "type": "function"
    },
    {
      "inputs": [
        {
          "internalType": "address",
          "name": "asset",
          "type": "address"
        }
      ],
      "name": "getOrdersByMakeAsset",
      "outputs": [
        {
          "components": [
            {
              "internalType": "address",
              "name": "maker",
              "type": "address"
            },
            {
              "internalType": "address",
              "name": "makeAsset",
              "type": "address"
            },
            {
              "internalType": "uint256",
              "name": "makeAmount",
              "type": "uint256"
            },
            {
              "internalType": "address",
              "name": "taker",
              "type": "address"
            },
            {
              "internalType": "address",
              "name": "takeAsset",
              "type": "address"
            },
            {
              "internalType": "uint256",
              "name": "takeAmount",
              "type": "uint256"
            },
            {
              "internalType": "uint256",
              "name": "salt",
              "type": "uint256"
            },
            {
              "internalType": "uint256",
              "name": "startBlock",
              "type": "uint256"
            },
            {
              "internalType": "uint256",
              "name": "endBlock",
              "type": "uint256"
            },
            {
              "internalType": "uint256",
              "name": "id",
              "type": "uint256"
            }
          ],
          "internalType": "struct IOrderBook.Order[]",
          "name": "",
          "type": "tuple[]"
        }
      ],
      "stateMutability": "view",
      "type": "function"
    },
    {
      "inputs": [
        {
          "internalType": "address",
          "name": "asset",
          "type": "address"
        }
      ],
      "name": "getOrdersByTakeAsset",
      "outputs": [
        {
          "components": [
            {
              "internalType": "address",
              "name": "maker",
              "type": "address"
            },
            {
              "internalType": "address",
              "name": "makeAsset",
              "type": "address"
            },
            {
              "internalType": "uint256",
              "name": "makeAmount",
              "type": "uint256"
            },
            {
              "internalType": "address",
              "name": "taker",
              "type": "address"
            },
            {
              "internalType": "address",
              "name": "takeAsset",
              "type": "address"
            },
            {
              "internalType": "uint256",
              "name": "takeAmount",
              "type": "uint256"
            },
            {
              "internalType": "uint256",
              "name": "salt",
              "type": "uint256"
            },
            {
              "internalType": "uint256",
              "name": "startBlock",
              "type": "uint256"
            },
            {
              "internalType": "uint256",
              "name": "endBlock",
              "type": "uint256"
            },
            {
              "internalType": "uint256",
              "name": "id",
              "type": "uint256"
            }
          ],
          "internalType": "struct IOrderBook.Order[]",
          "name": "",
          "type": "tuple[]"
        }
      ],
      "stateMutability": "view",
      "type": "function"
    },
    {
      "inputs": [
        {
          "internalType": "address",
          "name": "makerAddress",
          "type": "address"
        }
      ],
      "name": "getOrdersByAddress",
      "outputs": [
        {
          "components": [
            {
              "internalType": "address",
              "name": "maker",
              "type": "address"
            },
            {
              "internalType": "address",
              "name": "makeAsset",
              "type": "address"
            },
            {
              "internalType": "uint256",
              "name": "makeAmount",
              "type": "uint256"
            },
            {
              "internalType": "address",
              "name": "taker",
              "type": "address"
            },
            {
              "internalType": "address",
              "name": "takeAsset",
              "type": "address"
            },
            {
              "internalType": "uint256",
              "name": "takeAmount",
              "type": "uint256"
            },
            {
              "internalType": "uint256",
              "name": "salt",
              "type": "uint256"
            },
            {
              "internalType": "uint256",
              "name": "startBlock",
              "type": "uint256"
            },
            {
              "internalType": "uint256",
              "name": "endBlock",
              "type": "uint256"
            },
            {
              "internalType": "uint256",
              "name": "id",
              "type": "uint256"
            }
          ],
          "internalType": "struct IOrderBook.Order[]",
          "name": "",
          "type": "tuple[]"
        },
        {
          "internalType": "enum IOrderBook.Status[]",
          "name": "",
          "type": "uint8[]"
        },
        {
          "components": [
            {
              "internalType": "address",
              "name": "taker",
              "type": "address"
            },
            {
              "internalType": "uint256",
              "name": "makeAmountBought",
              "type": "uint256"
            }
          ],
          "internalType": "struct IOrderBook.Bid[][]",
          "name": "",
          "type": "tuple[][]"
        }
      ],
      "stateMutability": "view",
      "type": "function"
    },
    {
      "inputs": [
        {
          "internalType": "uint256",
          "name": "id",
          "type": "uint256"
        }
      ],
      "name": "getRemainingAmount",
      "outputs": [
        {
          "internalType": "uint256",
          "name": "_remaining",
          "type": "uint256"
        }
      ],
      "stateMutability": "view",
      "type": "function"
    },
    {
      "inputs": [
        {
          "internalType": "uint256",
          "name": "makeAmount",
          "type": "uint256"
        },
        {
          "internalType": "uint256",
          "name": "takeAmount",
          "type": "uint256"
        },
        {
          "internalType": "address",
          "name": "makeAsset",
          "type": "address"
        },
        {
          "internalType": "address",
          "name": "takeAsset",
          "type": "address"
        },
        {
          "internalType": "uint256",
          "name": "endBlockTime",
          "type": "uint256"
        }
      ],
      "name": "openOrder",
      "outputs": [
        {
          "components": [
            {
              "internalType": "address",
              "name": "maker",
              "type": "address"
            },
            {
              "internalType": "address",
              "name": "makeAsset",
              "type": "address"
            },
            {
              "internalType": "uint256",
              "name": "makeAmount",
              "type": "uint256"
            },
            {
              "internalType": "address",
              "name": "taker",
              "type": "address"
            },
            {
              "internalType": "address",
              "name": "takeAsset",
              "type": "address"
            },
            {
              "internalType": "uint256",
              "name": "takeAmount",
              "type": "uint256"
            },
            {
              "internalType": "uint256",
              "name": "salt",
              "type": "uint256"
            },
            {
              "internalType": "uint256",
              "name": "startBlock",
              "type": "uint256"
            },
            {
              "internalType": "uint256",
              "name": "endBlock",
              "type": "uint256"
            },
            {
              "internalType": "uint256",
              "name": "id",
              "type": "uint256"
            }
          ],
          "internalType": "struct IOrderBook.Order",
          "name": "",
          "type": "tuple"
        }
      ],
      "stateMutability": "nonpayable",
      "type": "function"
    },
    {
      "inputs": [
        {
          "internalType": "uint256",
          "name": "id",
          "type": "uint256"
        },
        {
          "internalType": "uint256",
          "name": "amount",
          "type": "uint256"
        }
      ],
      "name": "takeOrder",
      "outputs": [
        {
          "internalType": "bool",
          "name": "success",
          "type": "bool"
        }
      ],
      "stateMutability": "nonpayable",
      "type": "function"
    },
    {
      "inputs": [
        {
          "internalType": "uint256",
          "name": "id",
          "type": "uint256"
        }
      ],
      "name": "cancelOrder",
      "outputs": [
        {
          "internalType": "bool",
          "name": "success",
          "type": "bool"
        }
      ],
      "stateMutability": "nonpayable",
      "type": "function"
    }
  ],
  "bytecode": "0x608060405234801561001057600080fd5b5061240c806100206000396000f3fe608060405234801561001057600080fd5b506004361061010b5760003560e01c80636c143862116100a2578063a7256e2911610071578063a7256e2914610248578063da18ddc314610314578063eabd9a8114610346578063f6252ff214610359578063fb4ca3b61461036c5761010b565b80636c143862146102105780638129fc1c1461021857806389a337711461022257806399eeda02146102355761010b565b806342b50a7a116100de57806342b50a7a146101a3578063453ec0be146101c5578063490783cc146101dd578063514fcac7146101fd5761010b565b806305b3a19e1461011057806307f48523146101395780632e2dc43e146101695780632eab93cb14610180575b600080fd5b61012361011e36600461206c565b61037f565b6040516101309190612306565b60405180910390f35b61015c61014736600461201b565b60356020526000908152604090205460ff1681565b60405161013091906122c1565b610171610909565b60405161013093929190612213565b61019361018e36600461204b565b610c55565b6040519015158152602001610130565b6101b66101b136600461201b565b611184565b60405161013093929190612315565b6033546101cf9081565b604051908152602001610130565b6101f06101eb366004611fe1565b6112aa565b6040516101309190612200565b61019361020b36600461201b565b611432565b6101cf611743565b610220611753565b005b61019361023036600461201b565b61185c565b610171610243366004611fe1565b611870565b6102b761025636600461201b565b60346020526000908152604090208054600182015460028301546003840154600485015460058601546006870154600788015460088901546009909901546001600160a01b039889169997891698969795871696909416949293919290918a565b604080516001600160a01b039b8c168152998b1660208b0152890197909752948816606088015296909216608086015260a085015260c084015260e083019390935261010082019290925261012081019190915261014001610130565b61032761032236600461204b565b611bdf565b604080516001600160a01b039093168352602083019190915201610130565b6101f0610354366004611fe1565b611c25565b6101cf61036736600461201b565b611da4565b61019361037a36600461201b565b611e24565b610387611f53565b600260015414156103b35760405162461bcd60e51b81526004016103aa906122cf565b60405180910390fd5b60026001556001600160a01b03841661040e5760405162461bcd60e51b815260206004820152601a60248201527f496e76616c6964204d616b65204173736574204164647265737300000000000060448201526064016103aa565b6001600160a01b0383166104645760405162461bcd60e51b815260206004820152601a60248201527f496e76616c69642054616b65204173736574204164647265737300000000000060448201526064016103aa565b600086116104ad5760405162461bcd60e51b815260206004820152601660248201527504d616b6520616d6f756e742063616e277420626520360541b60448201526064016103aa565b600085116104f65760405162461bcd60e51b8152602060048201526016602482015275054616b6520616d6f756e742063616e277420626520360541b60448201526064016103aa565b826001600160a01b0316846001600160a01b031614156105625760405162461bcd60e51b815260206004820152602160248201527f54616b6520616e64204d616b6520617265207468652073616d6520746f6b656e6044820152607360f81b60648201526084016103aa565b4282116105a05760405162461bcd60e51b815260206004820152600c60248201526b496e76616c6964204461746560a01b60448201526064016103aa565b6040516370a0823160e01b815233600482015286906001600160a01b038616906370a082319060240160206040518083038186803b1580156105e157600080fd5b505afa1580156105f5573d6000803e3d6000fd5b505050506040513d601f19601f820116820180604052508101906106199190612033565b10156106675760405162461bcd60e51b815260206004820152601f60248201527f496e73756666696369656e74204d616b652041737365742042616c616e63650060448201526064016103aa565b61066f611f53565b3381526040810187905260a081018690526001600160a01b038581166020830152841660808201524260e0820152610100810183905260335461012082015280603460006106bc60335490565b815260208082019290925260409081016000908120845181546001600160a01b03199081166001600160a01b03928316178355948601516001830180548716918316919091179055858401516002830155606086015160038301805487169183169190911790556080860151600480840180549097169183169190911790955560a0860151600583015560c0860151600683015560e0860151600783015561010086015160088301556101209095015160099091015590516323b872dd60e01b81523392810192909252306024830152604482018a9052918716906323b872dd90606401602060405180830381600087803b1580156107ba57600080fd5b505af11580156107ce573d6000803e3d6000fd5b505050506040513d601f19601f820116820180604052508101906107f29190611ffb565b905060006035600061080360335490565b81526020810191909152604001600020805460ff1916600183600381111561083b57634e487b7160e01b600052602160045260246000fd5b0217905550806108855760405162461bcd60e51b8152602060048201526015602482015274151c985b9cd9995c88155b9cdd58d8d95cdcd99d5b605a1b60448201526064016103aa565b3361088f60335490565b604080518b8152602081018b90524281830152606081018890526001600160a01b038a81166080830152891660a082015290517fcacb0226fe2d3912c1d8262ef555a3140dbddc250b928b729aab9bc9abb21f399181900360c00190a36108fa603380546001019055565b50600180559695505050505050565b6060806060600061091960335490565b67ffffffffffffffff81111561093f57634e487b7160e01b600052604160045260246000fd5b60405190808252806020026020018201604052801561097857816020015b610965611f53565b81526020019060019003908161095d5790505b509050600061098660335490565b67ffffffffffffffff8111156109ac57634e487b7160e01b600052604160045260246000fd5b6040519080825280602002602001820160405280156109d5578160200160208202803683370190505b50905060006109e360335490565b67ffffffffffffffff811115610a0957634e487b7160e01b600052604160045260246000fd5b604051908082528060200260200182016040528015610a3c57816020015b6060815260200190600190039081610a275790505b50905060005b603354811015610c485760008181526034602090815260409182902082516101408101845281546001600160a01b039081168252600183015481169382019390935260028201549381019390935260038101548216606084015260048101549091166080830152600581015460a0830152600681015460c0830152600781015460e08301526008810154610100830152600901546101208201528451859083908110610afe57634e487b7160e01b600052603260045260246000fd5b60200260200101819052506035600082815260200190815260200160002060009054906101000a900460ff16838281518110610b4a57634e487b7160e01b600052603260045260246000fd5b60200260200101906003811115610b7157634e487b7160e01b600052602160045260246000fd5b90816003811115610b9257634e487b7160e01b600052602160045260246000fd5b905250600081815260366020908152604080832080548251818502810185019093528083529193909284015b82821015610c06576000848152602090819020604080518082019091526002850290910180546001600160a01b03168252600190810154828401529083529092019101610bbe565b50505050828281518110610c2a57634e487b7160e01b600052603260045260246000fd5b60200260200101819052508080610c40906123a5565b915050610a42565b5091945092509050909192565b600060026001541415610c7a5760405162461bcd60e51b81526004016103aa906122cf565b60026001818155600085815260346020908152604080832081516101408101835281546001600160a01b03908116825295820154861693810193909352948501549082015260038401548316606082015260048401549092166080830152600583015460a0830152600683015460c0830152600783015460e0830152600883015461010083015260099092015461012082015290610d1785611da4565b905060008411610d5a5760405162461bcd60e51b815260206004820152600e60248201526d125b9d985b1a5908105b5bdd5b9d60921b60448201526064016103aa565b60808201516040516370a0823160e01b815233600482015285916001600160a01b0316906370a082319060240160206040518083038186803b158015610d9f57600080fd5b505afa158015610db3573d6000803e3d6000fd5b505050506040513d601f19601f82011682018060405250810190610dd79190612033565b1015610e255760405162461bcd60e51b815260206004820152601f60248201527f496e73756666696369656e742054616b652041737365742042616c616e63650060448201526064016103aa565b610e2e85611e24565b610e7a5760405162461bcd60e51b815260206004820152601f60248201527f4f7264657220697320636f6d706c65746564206f722063616e63656c6c65640060448201526064016103aa565b6000858152603560205260409020805460ff1916600117905583808211610eb757506000858152603560205260409020805460ff19166002179055805b6000610ede8460400151610ed88660a0015185611f3490919063ffffffff16565b90611f47565b60408051808201825233808252602080830187815260008d815260368352858120805460018082018355918352848320875160029092020180546001600160a01b0319166001600160a01b0392831617815593519390910192909255918a0151945163a9059cbb60e01b8152600481019390935260248301889052949550919391929091169063a9059cbb90604401602060405180830381600087803b158015610f8757600080fd5b505af1158015610f9b573d6000803e3d6000fd5b505050506040513d601f19601f82011682018060405250810190610fbf9190611ffb565b9050806110065760405162461bcd60e51b815260206004820152601560248201527413585ad95c881dda5d1a191c985dc811985a5b1959605a1b60448201526064016103aa565b608086015186516040516323b872dd60e01b81523360048201526001600160a01b039182166024820152604481018690529116906323b872dd90606401602060405180830381600087803b15801561105d57600080fd5b505af1158015611071573d6000803e3d6000fd5b505050506040513d601f19601f820116820180604052508101906110959190611ffb565b9050806110db5760405162461bcd60e51b815260206004820152601460248201527315185ad95c8819195c1bdcda5d0811985a5b195960621b60448201526064016103aa565b336001600160a01b031686600001516001600160a01b03168a7f94bae693f27e578575f4ee5bf95223365cb4707a876b19abc2170b05f7fef27d89602001518a608001518b60e001518c61010001518f8c8e611137919061238e565b604080516001600160a01b039788168152969095166020870152938501929092526060840152608083015260a082015260c00160405180910390a450506001808055979650505050505050565b61118c611f53565b600082815260346020908152604080832060358352818420546036845282852083516101408101855283546001600160a01b03908116825260018501548116828801526002850154828701526003850154811660608381019190915260048601549091166080830152600585015460a0830152600685015460c0830152600785015460e0830152600885015461010083015260099094015461012082015281548551818802810188019096528086529395909460ff909316939192918391889084015b82821015611297576000848152602090819020604080518082019091526002850290910180546001600160a01b0316825260019081015482840152908352909201910161124f565b5050505090509250925092509193909250565b606060006112b760335490565b67ffffffffffffffff8111156112dd57634e487b7160e01b600052604160045260246000fd5b60405190808252806020026020018201604052801561131657816020015b611303611f53565b8152602001906001900390816112fb5790505b50905060005b6033548110156114295761132f81611e24565b15611417576000818152603460205260409020600401546001600160a01b03858116911614156114175760008181526034602090815260409182902082516101408101845281546001600160a01b039081168252600183015481169382019390935260028201549381019390935260038101548216606084015260048101549091166080830152600581015460a0830152600681015460c0830152600781015460e0830152600881015461010083015260090154610120820152825183908390811061140b57634e487b7160e01b600052603260045260246000fd5b60200260200101819052505b80611421816123a5565b91505061131c565b5090505b919050565b60008181526034602052604081205482906001600160a01b031633146114a65760405162461bcd60e51b815260206004820152602360248201527f4f6e6c79204d61726b65722063616e2063616e63656c207468656972206f726460448201526265727360e81b60648201526084016103aa565b600260015414156114c95760405162461bcd60e51b81526004016103aa906122cf565b6002600181815560008581526034602090815260409182902082516101408101845281546001600160a01b03908116825294820154851692810192909252938401549181019190915260038301548216606082015260048301549091166080820152600582015460a0820152600682015460c0820152600782015460e0820152600882015461010082015260099091015461012082015261156984611e24565b6115c15760405162461bcd60e51b8152602060048201526024808201527f4f7264657220697320416c726561647920436c6f736564206f722046756c66696044820152631b1b195960e21b60648201526084016103aa565b60006115cc85611da4565b602083015160405163a9059cbb60e01b8152336004820152602481018390529192506000916001600160a01b039091169063a9059cbb90604401602060405180830381600087803b15801561162057600080fd5b505af1158015611634573d6000803e3d6000fd5b505050506040513d601f19601f820116820180604052508101906116589190611ffb565b90508061169e5760405162461bcd60e51b81526020600482015260146024820152731499599d5b990813585c9ad95d0811985a5b195960621b60448201526064016103aa565b82600001516001600160a01b0316867f3e757ca1447cdaed454b3c1eb637abec89bd55db7e9c2ad2ae0717a0a01f561f85602001518660800151868860a001518960e001518a610100015160405161172c969594939291906001600160a01b03968716815294909516602085015260408401929092526060830152608082015260a081019190915260c00190565b60405180910390a350506001808055949350505050565b600061174e60335490565b905090565b600054610100900460ff16158080156117735750600054600160ff909116105b8061178d5750303b15801561178d575060005460ff166001145b6117f05760405162461bcd60e51b815260206004820152602e60248201527f496e697469616c697a61626c653a20636f6e747261637420697320616c72656160448201526d191e481a5b9a5d1a585b1a5e995960921b60648201526084016103aa565b6000805460ff191660011790558015611813576000805461ff0019166101001790555b8015611859576000805461ff0019169055604051600181527f7f26b83ff96e1f2b6a682f133852f6798a09c465da95921460cefb38474024989060200160405180910390a15b50565b600061186760335490565b90911115919050565b6060806060600061188060335490565b67ffffffffffffffff8111156118a657634e487b7160e01b600052604160045260246000fd5b6040519080825280602002602001820160405280156118df57816020015b6118cc611f53565b8152602001906001900390816118c45790505b50905060006118ed60335490565b67ffffffffffffffff81111561191357634e487b7160e01b600052604160045260246000fd5b60405190808252806020026020018201604052801561193c578160200160208202803683370190505b509050600061194a60335490565b67ffffffffffffffff81111561197057634e487b7160e01b600052604160045260246000fd5b6040519080825280602002602001820160405280156119a357816020015b606081526020019060019003908161198e5790505b50905060005b603354811015611bd1576000818152603460205260409020546001600160a01b0389811691161415611bbf5760008181526034602090815260409182902082516101408101845281546001600160a01b039081168252600183015481169382019390935260028201549381019390935260038101548216606084015260048101549091166080830152600581015460a0830152600681015460c0830152600781015460e08301526008810154610100830152600901546101208201528451859083908110611a8757634e487b7160e01b600052603260045260246000fd5b60200260200101819052506035600082815260200190815260200160002060009054906101000a900460ff16838281518110611ad357634e487b7160e01b600052603260045260246000fd5b60200260200101906003811115611afa57634e487b7160e01b600052602160045260246000fd5b90816003811115611b1b57634e487b7160e01b600052602160045260246000fd5b905250600081815260366020908152604080832080548251818502810185019093528083529193909284015b82821015611b8f576000848152602090819020604080518082019091526002850290910180546001600160a01b03168252600190810154828401529083529092019101611b47565b50505050828281518110611bb357634e487b7160e01b600052603260045260246000fd5b60200260200101819052505b80611bc9816123a5565b9150506119a9565b509196909550909350915050565b60366020528160005260406000208181548110611bfb57600080fd5b6000918252602090912060029091020180546001909101546001600160a01b039091169250905082565b60606000611c3260335490565b67ffffffffffffffff811115611c5857634e487b7160e01b600052604160045260246000fd5b604051908082528060200260200182016040528015611c9157816020015b611c7e611f53565b815260200190600190039081611c765790505b50905060005b60335481101561142957611caa81611e24565b15611d92576000818152603460205260409020600101546001600160a01b0385811691161415611d925760008181526034602090815260409182902082516101408101845281546001600160a01b039081168252600183015481169382019390935260028201549381019390935260038101548216606084015260048101549091166080830152600581015460a0830152600681015460c0830152600781015460e08301526008810154610100830152600901546101208201528251839083908110611d8657634e487b7160e01b600052603260045260246000fd5b60200260200101819052505b80611d9c816123a5565b915050611c97565b60008181526036602090815260408083206034909252822060020154825b8254811015611e1c57828181548110611deb57634e487b7160e01b600052603260045260246000fd5b90600052602060002090600202016001015482611e08919061238e565b915080611e14816123a5565b915050611dc2565b509392505050565b6000611e2f8261185c565b611e715760405162461bcd60e51b815260206004820152601360248201527213dc99195c88191bd95cdb89dd08195e1a5cdd606a1b60448201526064016103aa565b6000828152603460205260409020600801544210611ec15760405162461bcd60e51b815260206004820152600d60248201526c13dc99195c88115e1c1a5c9959609a1b60448201526064016103aa565b60008281526035602052604081205460ff166003811115611ef257634e487b7160e01b600052602160045260246000fd5b1480611f2e5750600160008381526035602052604090205460ff166003811115611f2c57634e487b7160e01b600052602160045260246000fd5b145b92915050565b6000611f40828461236f565b9392505050565b6000611f40828461234f565b60405180610140016040528060006001600160a01b0316815260200160006001600160a01b031681526020016000815260200160006001600160a01b0316815260200160006001600160a01b0316815260200160008152602001600081526020016000815260200160008152602001600081525090565b80356001600160a01b038116811461142d57600080fd5b600060208284031215611ff2578081fd5b611f4082611fca565b60006020828403121561200c578081fd5b81518015158114611f40578182fd5b60006020828403121561202c578081fd5b5035919050565b600060208284031215612044578081fd5b5051919050565b6000806040838503121561205d578081fd5b50508035926020909101359150565b600080600080600060a08688031215612083578081fd5b853594506020860135935061209a60408701611fca565b92506120a860608701611fca565b949793965091946080013592915050565b6000815180845260208085019450808401835b838110156120fc57815180516001600160a01b0316885283015183880152604090960195908201906001016120cc565b509495945050505050565b6000815180845260208085019450808401835b838110156120fc5761212d878351612163565b61014096909601959082019060010161211a565b6004811061215f57634e487b7160e01b600052602160045260246000fd5b9052565b80516001600160a01b03168252602081015161218a60208401826001600160a01b03169052565b506040810151604083015260608101516121af60608401826001600160a01b03169052565b5060808101516121ca60808401826001600160a01b03169052565b5060a0818101519083015260c0808201519083015260e08082015190830152610100808201519083015261012090810151910152565b600060208252611f406020830184612107565b6000606082526122266060830186612107565b828103602084810191909152855180835286820192820190845b8181101561226357612253838651612141565b9383019391830191600101612240565b505084810360408601528551808252828201935082810282018301838801865b838110156122b157601f1985840301875261229f8383516120b9565b96860196925090850190600101612283565b50909a9950505050505050505050565b60208101611f2e8284612141565b6020808252601f908201527f5265656e7472616e637947756172643a207265656e7472616e742063616c6c00604082015260600190565b6101408101611f2e8284612163565b60006101806123248387612163565b612332610140840186612141565b80610160840152612345818401856120b9565b9695505050505050565b60008261236a57634e487b7160e01b81526012600452602481fd5b500490565b6000816000190483118215151615612389576123896123c0565b500290565b6000828210156123a0576123a06123c0565b500390565b60006000198214156123b9576123b96123c0565b5060010190565b634e487b7160e01b600052601160045260246000fdfea2646970667358221220026f87fc6c60466480aa73f87f16d3ad75f6b4a7c3584537a5a90acd8029f77c64736f6c63430008020033",
  "immutableReferences": {},
  "source": "\n/// SPDX-License-Identifier: MIT\npragma solidity ^0.8.2;\n\nimport \"@openzeppelin/contracts-upgradeable/security/ReentrancyGuardUpgradeable.sol\";\nimport \"@openzeppelin/contracts-upgradeable/token/ERC20/ERC20Upgradeable.sol\";\nimport \"@openzeppelin/contracts-upgradeable/utils/math/SafeMathUpgradeable.sol\";\nimport \"@openzeppelin/contracts-upgradeable/utils/CountersUpgradeable.sol\";\nimport \"@openzeppelin/contracts-upgradeable/proxy/utils/Initializable.sol\";\n\n//@notice OrderBook Interface\nimport \"./interfaces/IOrderBook.sol\";\n/**s\n * @title OrderBook Contract\n * @author Hadi Khairallah\n **/\ncontract OrderBook is Initializable,ReentrancyGuardUpgradeable, IOrderBook{\n\n    /// @notice Using a counter to increment Order count\n    using CountersUpgradeable for CountersUpgradeable.Counter;\n\n    /// @notice using safe math for uints\n    using SafeMathUpgradeable for uint256;\n\n    /// @notice Order Id counter\n    CountersUpgradeable.Counter public _currentOrderId;\n\n    // @notice OrderBooks\n    mapping(uint256 => Order) public _orderBooks;\n\n    // @notice Status for Orders (can be part of the Order Struct)\n    mapping(uint256 => Status) public _orderStatus;\n\n    // @notice Bids for Order\n    mapping(uint256 => Bid[]) public _orderBids;\n\n    function initialize() public initializer {}\n\n    modifier onlyMaker(uint id) {\n        require(\n            _orderBooks[id].maker == msg.sender,\n            \"Only Marker can cancel their orders\"\n        );\n        _;\n    }\n\n    function getCurrentId () public view returns (uint){\n        return _currentOrderId.current();\n    }\n\n    function checkOrderExists(uint id) public view returns(bool){\n        return id <= _currentOrderId.current();\n    }\n\n    function canFill(uint256 id) public view returns (bool){\n        require(checkOrderExists(id), \"Order doesn't exist\");\n        require(_orderBooks[id].endBlock > block.timestamp, \"Order Expired\");\n        return (_orderStatus[id] == Status.OPENED || _orderStatus[id] == Status.PARTIALLY_FILLED );\n    }\n\n    function getOrders() external view returns (Order[] memory, Status[] memory, Bid[][] memory){\n        Order[] memory order = new Order[](_currentOrderId.current());\n        Status[] memory status = new Status[](_currentOrderId.current());\n        Bid[][] memory bids = new Bid[][](_currentOrderId.current());\n        for (uint i = 0; i < _currentOrderId.current(); i++) {\n            order[i] = _orderBooks[i];\n            status[i] = _orderStatus[i];\n            bids[i] = _orderBids[i];\n        }\n        return (order,status,bids);\n    }\n\n    function getOrderById(uint id) external view returns (Order memory, Status, Bid[] memory){\n        return (_orderBooks[id], _orderStatus[id], _orderBids[id]);\n    }\n\n    function getOrdersByMakeAsset(address asset) public view returns (Order[] memory){\n        Order[] memory order = new Order[](_currentOrderId.current());\n\n        for (uint i = 0; i < _currentOrderId.current(); i++) {\n            if(canFill(i)){\n               if(_orderBooks[i].makeAsset==asset){\n                   order[i] = _orderBooks[i];\n               }\n            }\n        }\n        return order;\n    }\n\n    function getOrdersByTakeAsset(address asset) public view returns (Order[] memory){\n        Order[] memory order = new Order[](_currentOrderId.current());\n\n        for (uint i = 0; i < _currentOrderId.current(); i++) {\n            if(canFill(i)){\n                if(_orderBooks[i].takeAsset==asset){\n                    order[i] = _orderBooks[i];\n                }\n            }\n        }\n        return order;\n    }\n\n    function getOrdersByAddress(address makerAddress) public view returns (Order[] memory, Status[] memory, Bid[][] memory){\n        Order[] memory order = new Order[](_currentOrderId.current());\n        Status[] memory status = new Status[](_currentOrderId.current());\n        Bid[][] memory bids = new Bid[][](_currentOrderId.current());\n        for (uint i = 0; i < _currentOrderId.current(); i++) {\n            if(_orderBooks[i].maker== makerAddress){\n                order[i] = _orderBooks[i];\n                status[i] = _orderStatus[i];\n                bids[i] = _orderBids[i];\n            }\n        }\n        return (order,status,bids);\n    }\n\n    // @notice Get Remaining amount by Order Id\n    function getRemainingAmount(uint id) public view returns (uint _remaining){\n        Bid[] storage bids = _orderBids[id];\n        uint remaining = _orderBooks[id].makeAmount;\n        for (uint i = 0; i < bids.length; i++) {\n            remaining = remaining - bids[i].makeAmountBought;\n        }\n        return remaining;\n    }\n\n    // @notice Open Order\n    function openOrder (\n        uint256 makeAmount,\n        uint256 takeAmount,\n        address makeAsset,\n        address takeAsset,\n        uint256 endBlockTime\n    ) external nonReentrant returns(Order memory){\n        require(makeAsset != address(0), \"Invalid Make Asset Address\");\n        require(takeAsset != address(0), \"Invalid Take Asset Address\");\n        require(makeAmount > 0, \"Make amount can't be 0\");\n        require(takeAmount > 0, \"Take amount can't be 0\");\n        require(makeAsset != takeAsset, \"Take and Make are the same tokens\");\n        require(endBlockTime > block.timestamp, \"Invalid Date\");\n        require(\n            ERC20Upgradeable(makeAsset).balanceOf(msg.sender) >= makeAmount,\n            \"Insufficient Make Asset Balance\"\n        );\n\n\n\n        Order memory _order;\n\n        _order.maker = msg.sender;\n        _order.makeAmount = makeAmount;\n        _order.takeAmount = takeAmount;\n        _order.makeAsset = makeAsset;\n        _order.takeAsset = takeAsset;\n        _order.startBlock = block.timestamp;\n        _order.endBlock = endBlockTime;\n        _order.id = _currentOrderId.current();\n        _orderBooks[_currentOrderId.current()] = _order;\n\n        bool success = ERC20Upgradeable(makeAsset).transferFrom(\n            msg.sender,\n            address(this),\n            makeAmount\n        );\n\n        _orderStatus[_currentOrderId.current()] = Status.OPENED;\n\n        require(success, \"Transfer Unsuccessful\");\n        emit OpenOrderEvent(\n            _currentOrderId.current(),\n            msg.sender,\n            makeAmount,\n            takeAmount,\n            block.timestamp,\n            endBlockTime,\n            makeAsset,\n            takeAsset\n        );\n        _currentOrderId.increment();\n        return _order;\n    }\n\n    function takeOrder(uint id, uint256 amount) external nonReentrant returns (bool success){\n        Order memory order = _orderBooks[id];\n        uint256 _remaining = getRemainingAmount(id);\n        require(amount > 0, \"Invalid Amount\");\n        require(\n            ERC20Upgradeable(order.takeAsset).balanceOf(msg.sender) >= amount,\n            \"Insufficient Take Asset Balance\"\n        );\n        require(canFill(id), \"Order is completed or cancelled\");\n\n        uint256 amountMake = amount;\n\n        _orderStatus[id] =Status.PARTIALLY_FILLED;\n        if(_remaining<=amount){\n            amountMake = _remaining;\n            _orderStatus[id] = Status.FULFILLED;\n        }\n\n        uint256 takeAssetAmount = (amountMake.mul(order.takeAmount)).div(order.makeAmount);\n\n        Bid memory bid = Bid(msg.sender, amountMake);\n\n        _orderBids[id].push(bid);\n        bool result = ERC20Upgradeable(order.makeAsset).transfer(msg.sender, amountMake);\n        require(result, \"Maker withdraw Failed\");\n        result = ERC20Upgradeable(order.takeAsset).transferFrom(msg.sender, order.maker, takeAssetAmount);\n        require(result, \"Taker deposit Failed\");\n        emit FillingOrderEvent(\n            id,\n            order.maker,\n            msg.sender,\n            order.makeAsset,\n            order.takeAsset,\n            order.startBlock,\n            order.endBlock,\n            amount,\n            _remaining - amountMake\n        );\n        success = true;\n    }\n\n    function cancelOrder(uint256 id)  external  onlyMaker(id) nonReentrant returns(bool success){\n        Order memory order = _orderBooks[id];\n        require(canFill(id), \"Order is Already Closed or Fulfilled\");\n        uint256 _remaining = getRemainingAmount(id);\n        bool result = ERC20Upgradeable(order.makeAsset).transfer(msg.sender, _remaining);\n        require(result, \"Refund Market Failed\");\n        emit CancelOrderEvent(\n            id,\n            order.maker,\n            order.makeAsset,\n            order.takeAsset,\n            _remaining,\n            order.takeAmount,\n            order.startBlock,\n            order.endBlock\n        );\n        success = true;\n    }\n}",
  "sourcePath": "/Users/BrolySaiyan/Desktop/contracts/contracts/OrderBook.sol",
  "compiler": {
    "name": "solc",
    "version": "0.8.2+commit.661d1103.Emscripten.clang"
  },
  "schemaVersion": "3.4.7",
  "updatedAt": "2022-07-09T02:20:50.717Z",
  "devdoc": {
    "author": "Hadi Khairallah*",
    "kind": "dev",
    "methods": {},
    "title": "OrderBook Contract",
    "version": 1
  },
  "userdoc": {
    "kind": "user",
    "methods": {
      "_currentOrderId()": {
        "notice": "Order Id counter"
      }
    },
    "notice": "s",
    "version": 1
  }
}